{
  "contractName": "SuarCoin",
  "abi": [
    {
      "constant": true,
      "inputs": [],
      "name": "totalSupply",
      "outputs": [
        {
          "name": "",
          "type": "uint256"
        }
      ],
      "payable": false,
      "stateMutability": "view",
      "type": "function"
    },
    {
      "inputs": [],
      "payable": false,
      "stateMutability": "nonpayable",
      "type": "constructor"
    }
  ],
  "bytecode": "0x608060405234801561001057600080fd5b50633b9aca00600081905550609e8061002a6000396000f300608060405260043610603f576000357c0100000000000000000000000000000000000000000000000000000000900463ffffffff16806318160ddd146044575b600080fd5b348015604f57600080fd5b506056606c565b6040518082815260200191505060405180910390f35b600054815600a165627a7a723058207c1ddad2c12f6573a796347d3c7fbe162fbf749c924a985eca737f3c52b471f70029",
  "source": "pragma solidity ^0.4.23;\n\ncontract SuarCoin {\n\t// Constructor\n\t// Set the total number of tokens\n\t// Read the total number of tokens\n\n\tuint256 public totalSupply;\n\n\tconstructor () {\n\t\ttotalSupply = 1000000000;\n\t}\n}",
  "sourcePath": "/Users/restuarifpriyono/Development/blockchain/suarcoin/contracts/SuarCoin.sol",
  "compiler": {
    "name": "solc",
    "version": "0.4.24+commit.e67f0147.Emscripten.clang"
  },
  "schemaVersion": "2.0.1",
  "updatedAt": "2018-10-17T04:03:17.875Z"
}